:020000040800F2
:10000000780500209D0100082D1100083D10000812
:1000100029110008D5020008A11500080000000001
:100020000000000000000000000000003511000882
:10003000D902000800000000311100083911000841
:10004000B7010008B7010008B7010008B7010008B0
:10005000B7010008B7010008DD020008B701000879
:10006000B7010008B7010008B7010008B701000890
:10007000B7010008B7010008B7010008B701000880
:10008000B7010008B7010008B7010008B701000870
:10009000B7010008B7010008B7010008B701000860
:1000A000B7010008B7010008B7010008B701000850
:1000B000B7010008B7010008B7010008B701000840
:1000C000B7010008B7010008B7010008B701000830
:1000D000B701000855150008B7010008B70100086E
:1000E000B7010008B7010008B7010008B701000810
:1000F000B7010008B7010008B7010008B701000800
:10010000B7010008B7010008B7010008B7010008EF
:10011000B7010008B7010008B7010008B7010008DF
:10012000B7010008B7010008B7010008B7010008CF
:10013000B7010008B7010008B7010008B7010008BF
:10014000B7010008B7010008B7010008B7010008AF
:10015000B7010008B7010008B7010008B70100089F
:10016000B7010008B7010008B7010008B70100088F
:10017000B7010008B7010008B7010008000000003F
:10018000B7010008B7010008DFF80CD000F090F8C4
:1001900000480047C515000878050020064880473C
:1001A00006480047FEE7FEE7FEE7FEE7FEE7FEE75C
:1001B000FEE7FEE7FEE7FEE7ED1100088901000813
:1001C0002DE9F05F0546002092469B46884606468C
:1001D000814640241BE0284641464746224600F01F
:1001E00057F853465A46C01A914110D31146184643
:1001F000224600F03EF82D1A67EB01084F462246D2
:100200000120002100F035F817EB00094E41201EB7
:10021000A4F10104DFDC484631462A464346BDE8E6
:10022000F09FD2B201E000F8012B491EFBD27047CB
:100230000022F6E710B513460A4604461946FFF7B2
:10024000F0FF204610BD30B50B46014600202022AD
:10025000012409E021FA02F59D4205D303FA02F5D3
:10026000491B04FA02F52844151EA2F10102F1DC33
:1002700030BD202A04DB203A00FA02F1002070474A
:100280009140C2F1200320FA03F3194390407047D4
:10029000202A04DB203A21FA02F00021704721FADB
:1002A00002F3D040C2F12002914008431946704742
:1002B000064C074D06E0E06840F0010394E80700B3
:1002C00098471034AC42F6D3FFF762FF4418000899
:1002D00064180008FEE70000704700007047000047
:1002E00090F83510022909D1052180F835100068F1
:1002F000016821F001010160002070478021416503
:10030000012070472DE9F04F82B000F13E4241F6E6
:10031000004502F1FF77C4F2020543F6004E4FEAB2
:10032000B7260822A842C4F2010E08BF0722072EF2
:100330004FF001054FF000064FF000044FF00008A9
:1003400038BF4FEAB722009209E000BF08F1010868
:100350000234B8F1100F06F1040600F09D800F681A
:1003600005FA08FC17EA0C09F0D04F6847F01007AF
:10037000122F12D16FF0030202EA5807074406F069
:100380001C050F22D7F820A002FA05F30A692AEA11
:100390000303AA4001251A433A6202680323D1F8F5
:1003A00004A0A3406FEA030B9A430AF00303A3409F
:1003B0001A43BAF1120F026014D805FA0AF212F0C9
:1003C000061F0FD08268CB6802EA0B02A3401A43D3
:1003D00082604268CAF3001322EA0C0203FA08F3AF
:1003E0001A434260C2688B6802EA0B02A3401A43B8
:1003F0005FEACA03C260A9D5002243F64403019212
:10040000C4F202031A684FF6084C42F480421A60A4
:100410001A68CFF6FF7C02F480420192019A28F01C
:100420000302724452F80C3006F00C070F25BD4051
:10043000AB43009D05FA07F73B4342F80C30DEF86A
:1004400000204B6842EA0907DD0358BF22EA09078A
:10045000CEF80070DEF804209D0342EA090758BF79
:1004600022EA0907CEF80470DEF80820DD0242EA2D
:10047000090743F60C4558BF22EA0907CEF8087071
:10048000C4F201052A689B0242EA090758BF22EA22
:1004900009072F60012559E702B0BDE8F08F000081
:1004A000002A08BF090481617047000040F2701003
:1004B000C2F200000068704740F2080040F270117C
:1004C000C2F20000C2F2000100780A68104408601D
:1004D00070470000B0B540F20802C2F2000240F2DC
:1004E00004011278C2F200014FF47A730968B3FB79
:1004F000F2F20446B1FBF2F1084600F0D5FA0F2CF7
:100500004FF001050CD858B94FF0FF3021460022BA
:10051000002500F017F840F20C00C2F20000046061
:100520002846B0BD002848BF704700F01F010122D7
:1005300002FA01F14EF200124009CEF2000242F836
:100540002010704710B54EF60C5CCEF2000CDCF8B3
:100550000030C3F3022E8EF00704042C28BF0424BD
:10056000BEF103034FF0FF3E0EFA04F438BF002340
:10057000A14399400EFA03F39A43114300F16042FC
:1005800000F00F03090102F56442043B63440028B4
:1005900048BF03F10C02117010BD00002DE9F041BD
:1005A000002800F0868043F60808C4F202080446DA
:1005B000D8F8F8030D4600F00F00884207D288F8FB
:1005C000F853D8F8F80300F00F00A84271D1206862
:1005D000810717D5410705D5D8F8001041F4E0513F
:1005E000C8F80010010705D5D8F8001041F46041A3
:1005F000C8F80010D8F80010A26821F0F0011143EB
:10060000C8F80010C0073AD1D8F8F80300F00F007E
:10061000A84207D988F8F853D8F8F80300F00F007B
:10062000A84246D12068410707D5D8F80010E268F3
:1006300021F4E0511143C8F80010000708D5D8F89C
:100640000000216920F4604040EAC100C8F80000C1
:1006500000F07CF8D8F8001041F62C02C1F3031129
:10066000C0F60002515CC84040F20401C2F2000131
:1006700008600F20FFF72EFF0020BDE8F0816068C2
:10068000811E022907D258F8081C89015CBF01208D
:10069000BDE8F08110E0012807D158F8081C890353
:1006A0005CBF0120BDE8F08106E058F8081C89070E
:1006B00002D40120BDE8F081D8F8001021F0030138
:1006C0000843C8F80000FFF7F1FE064641F28837FC
:1006D000D8F80000616800F00C00B0EB810F93D0F7
:1006E000FFF7E4FE801BB842F2D90320BDE8F08199
:1006F00040F20400C2F200000068704740F20400BB
:1007000043F60801C2F20000C4F202010068096861
:1007100041F63C02C1F38221C0F60002515CC840A0
:100720007047000040F2040043F60801C2F20000E6
:10073000C4F202010068096841F63C02C1F342318B
:10074000C0F60002515CC8407047000010B543F687
:100750000404C4F20204606800F00C0008280AD007
:10076000042819BF42F20040C0F2F40047F64000EE
:10077000C0F27D1010BD206821682368490247F649
:100780004001C0F27D1100F03F02C3F388105CBF4E
:1007900042F20041C0F2F401A1FB00010023FFF787
:1007A0000FFD21680222C1F3014102EB4101B0FBC0
:1007B000F1F010BD2DE9F04182B0002876D004465A
:1007C000007843F60006C007C4F2020643D0B068C2
:1007D00000F00C00042816D0B06800F00C000828C7
:1007E00002D1706840020ED46568B5F5A02F10D014
:1007F000B5F5803F11D0306820F48030306030682B
:1008000020F480200CE03068800324D5606810BBA1
:100810004CE0306840F480203060306840F4803034
:100820003060FFF743FE002D054611D0306880038D
:1008300011D4FFF73BFE401B6428F7D9F6E000BF58
:10084000FFF734FE401B64284FF0030000F22481C0
:1008500030688003F4D42078800718D5B06810F091
:100860000C0F07D0B06800F00C0008285FD170684A
:1008700040025CD43068800702D5E068012815D1B9
:100880003068216920F0F80040EAC100306020782B
:1008900000070FD42078400723D4A569002D00F06D
:1008A000FE80B06800F00C00082871D1012002B071
:1008B000BDE8F0816069002840F20000C4F24720E2
:1008C00056D00121C0F8801EFFF7F0FD054600BF9D
:1008D000706F8007DED4FFF7E9FD401B0228F7D9CF
:1008E000A4E0306C10F080580AD100200190306CE8
:1008F00040F080503064306C00F0805001900198DE
:1009000047F20007C4F200073868C00523D43868EE
:1009100040F480703860FFF7C9FD05463868C005AF
:1009200019D4FFF7C3FD401B0228F7D97EE0E06829
:1009300000284ED00020C4F2472001210160FFF7BB
:10094000B5FD0546306880079AD4FFF7AFFD401B20
:100950000228F7D96AE0A568052D4FD0012D51D0A6
:10096000306F20F001003067306F20F004004CE061
:100970000021C0F8801EFFF799FD0546706F8007C3
:100980007FF588AFFFF792FD401B0228F6D94DE0B6
:100990000027C4F2472700203866FFF787FD022DA5
:1009A00005460BD13068800157D5FFF77FFD401B0E
:1009B00002284FF00300F5D96EE000BF30688001D7
:1009C0006DD5FFF773FD401B03284FF00300F5D3EF
:1009D00062E00020C4F2472000210160FFF766FDBD
:1009E000054600BF306880077FF551AFFFF75EFD19
:1009F000401B02284FF00300F4D94DE0306F40F067
:100A000004003067306F40F001003067FFF74EFDA3
:100A1000002D054641F2883713D000BF306F8007A4
:100A200012D4FFF743FD401BB842F7D9032002B0B0
:100A3000BDE8F081FFF73AFD401BB8424FF00300DC
:100A40002AD8306F8007F5D4B8F1000F7FF425AFB6
:100A5000306C20F0805030641FE704F11C052FCD6E
:100A6000084340EA8210D9034FF6FF729143A1F583
:100A7000803140EA05600843706001203866FFF766
:100A800015FD04463068800109D4FFF70FFD001BF7
:100A900002284FF00300F5D902B0BDE8F081002034
:100AA00002B0BDE8F0810000411E0020B0EB116FE4
:100AB0001CBF012070474EF21002CEF200025160BE
:100AC0004EF62351CEF20001F0230B700721906007
:100AD000116070477047000090F8391090F83A00A4
:100AE0000843C0B270470000B0B504460068016812
:100AF000C368426901F02F05202D03F0200505D1C0
:100B000025B12046BDE8B04000F0A2BB5FEA017C01
:100B10001EBF02F0010E03F4907212EB0E022AD1F6
:100B20000A0616D513F0800213D094F83910212943
:100B300032D1A268216AB2F5805F24D10A886FF3AE
:100B40005F2242602269002A14BF01310231216212
:100B50001DE0490620D513F0400108BFB0BDC168B3
:100B600021F04001C1602021204684F83910BDE801
:100B7000B04000F061BAC80718BF13F480700CD100
:100B8000480710D416E04A1C226209784160E18CC3
:100B900001390A04E1845CD0B0BDE06B40F0010093
:100BA000E063480706D5BEF1000F03D0E06B40F0CC
:100BB0000200E063880706D5BEF1000F03D0E06BAA
:100BC00040F00400E063BCF1000F06D5BEF1000F59
:100BD00003D0E06B40F00800E063E06B0028DBD05E
:100BE00011F0200018BF002D02D0204600F030FB8D
:100BF00020684169E26B01F0400102F008028918A7
:100C000021D0C16821F49071C160416921F00101D6
:100C10004161202184F83A104169490622D5416991
:100C200021F040014161606BE0B141F24521C0F625
:100C300000010165FFF754FB0028ADD0606B016D2A
:100C4000BDE8B04008472046FFF744FF0020E063BE
:100C5000B0BDC16821F08001C160C16841F04001B0
:100C6000C160B0BD2046BDE8B040FFF733BF000013
:100C7000002804BF0120704710B5044690F83900E1
:100C800028B9002084F83800204600F021F82420FC
:100C900084F839002068C16821F40051C160204601
:100CA00000F012FB2068016921F490410161416963
:100CB00021F02A014161C16841F40051C160002066
:100CC0002021E06384F8391084F83A1010BD000048
:100CD00070B586B00024C4F202040068A4F5704226
:100CE00000219042CDE90411CDE90211019101D01A
:100CF00006B070BD43F630000091C4F202004269B4
:100D000001AD42F0100242614269072602F0100272
:100D10000092009A0091026842F0010202600268AB
:100D200002F001020092009A0091026842F0010272
:100D30000260006800F00100009000984FF400701D
:100D400001900220CDE90201049020462946059633
:100D5000FFF7D8FA4FF480600190204629460596A7
:100D6000FFF7D0FA252000210122FFF7EBFB252019
:100D7000FFF7D8FB06B070BD034690F83A00202874
:100D80000AD100294FF0010018BF002A00D1704796
:100D900093F83800012801D10220704799620020A1
:100DA00022219A85DA85D86383F83A10196883F886
:100DB0003800CA6842F48072CA604A6942F001028F
:100DC0004A61CA6842F02002CA607047B0B5006844
:100DD00041F20001C4F20101884218BFB0BD40F2E7
:100DE0002415C2F200052A78511CC8B2884214D0DA
:100DF0000020287040F22400C2F200004FF48071FD
:100E0000FFF716FA40F22810C2F2000037A10C22B8
:100E10004FF6FF7300F072F83FE040F21C03C2F29D
:100E200000031C7840F22403C2F200039C5453FADE
:100E300081F212F8012C29700A2A2ED1184410F8D8
:100E4000020C0D2829D140F26C10C2F200000121E1
:100E5000017018A000F0D8FC40F228142A78C2F2E1
:100E6000000440F22401C2F2000120464FF6FF7355
:100E700000F044F816A000F0C7FC00BF2046FFF7C2
:100E80002BFE2128FAD00020287040F22400C2F264
:100E900000004FF48071FFF7CBF940F2281040F2C8
:100EA0001C01C2F20000C2F200010122BDE8B04004
:100EB000FFF762BF0AE68EA5E58F97E588B0E79A4F
:100EC00084E695B0E68DAEE4B8BAEFBC9A000000B7
:100ED000E58F91E98081E68EA5E58F97E588B0E7FB
:100EE0009A84E695B0E68DAE00000000E695B0E687
:100EF0008DAEE6BAA2E587BA000000002DE9F04108
:100F0000044690F8390020280ED10F4600294FF0F2
:100F1000010000F08E801646002A08BFBDE8F0816F
:100F200094F83800012802D10220BDE8F0810120A8
:100F300084F838000020E06321201D4684F8390041
:100F4000FFF7B4FAA684E684E18C8046002944D0F9
:100F50006E1C05E017F8010B21684860E08CE0B3D7
:100F6000E08C0138E0842068A1680068B1F5805FFA
:100F700000F0800004D1B8B99EB165B935E000BF7A
:100F80000028E7D13EB305BB2FE000BF016809068A
:100F90000AD4002EFAD0FFF789FAA0EB0800A84285
:100FA00023D82068F2E700BF3888216922686FF3F0
:100FB0005F200029506014BF01370237CEE700BF21
:100FC00001680906C6D4002EFAD0FFF76FFAA0EB2D
:100FD0000800A84209D82068F2E7206800684006A7
:100FE00020D415B16E1C10D015E02068C16821F422
:100FF000D071C160416921F001014161202084F874
:10100000390084F83A00032010E02068016849069E
:1010100008D4002EFAD0FFF749FAA0EB0800A84246
:10102000F3D9E2E7202084F839000020002184F879
:101030003810BDE8F081000070470000FEE70000B6
:10104000B0B586B0002043F630010190C4F2020131
:101050000A6841F2004442F020020A600A68C4F2C1
:10106000020402F020020192019A0190086801AD89
:1010700040F0200008600868294600F02000019038
:1010800001984FF4007001900120CDE90200022088
:1010900004902046FFF736F94FF480600190204617
:1010A0002946FFF72FF920464FF400710122FFF780
:1010B000F7F920464FF480610122FFF7F1F906B0FD
:1010C000B0BD000080B5FFF713FB4DF68361C4F29D
:1010D0001B31A0FB0101880C40F22001C2F200018B
:1010E000086080BD80B54EF2180140F22002CEF2B9
:1010F0000001C2F2000251F804CC126800235043F0
:101100004FF47A7200FB02FE086800BF0A68904242
:10111000FCD003449B1A904298BF63447345104629
:1011200028BF80BDF2E70000FEE700007047000026
:101130007047000070470000FFF7BEB970B592B06D
:1011400006AC20463021FFF773F8002543F6400037
:101150000595CDE90355CDE901550095C4F202008E
:101160000168022641F080510160006800F0805063
:101170000090009847F200000095C4F2000001685A
:1011800041F4804101600068A82100F48040009093
:101190000098012006904FF4803007904FF48000B3
:1011A0000D9004200E90119020460C96CDE90F165C
:1011B000FFF700FB18B1EFF3108072B6FEE70F20C7
:1011C000CDE901064FF4A05004904FF480500590F3
:1011D00001A805210395FFF7E1F920B1EFF3108095
:1011E00072B600BFFEE712B070BD00004EF6885028
:1011F000CEF2000001684FF0000C41F47001016074
:1012000043F60001C4F202010A6842F001020A60DA
:10121000C1F808C00B684FF6FF72CFF6F6621A40AD
:101220000A6043F21002C2F200424A600A6822F4E5
:1012300080220A60C1F80CC04FF0006140F8801CA9
:1012400070470000806B0021C185C184FFF742BC5C
:1012500090F83A10222918BF70478168B1F5805F75
:1012600008D102680369816A52687BB1D2B221F861
:10127000012B0FE0016802694968002A826A18BFE1
:1012800001F07F01531C8362117004E06FF35F2251
:1012900021F8022B8162C18D01390A04C18500D079
:1012A00070470168CA6822F02002CA60CA6822F446
:1012B0008072CA604A6922F001024A61202180F8E6
:1012C0003A10FFF783BD00002DE9F04381B00446DA
:1012D000006804F108030ECB0769194327F440574F
:1012E0003A430261626949F20C671143E269C368DB
:1012F00048F21F58BB4319431143C1604169A369B8
:1013000021F440711943416141F20041B2F5004FAF
:10131000C5F2EB1840F48060C4F2010145D1884267
:1013200040F08880FFF7FEF961681927784349008B
:10133000B0FBF1F0A0FB08016FF00F0000EA5106CE
:10134000FFF7F0F9616878434900B0FBF1F5FFF76A
:10135000E9F9616878434900B0FBF1F04FF06409A6
:10136000A0FB0801480900FB1950322101EBC00025
:10137000A0FB08014FF4F87000EA11100644FFF7D3
:10138000D1F9616878434900B0FBF1F5FFF7CAF97C
:10139000616878434900B0FBF1F0A0FB08014809FF
:1013A00000FB19500721C000C8E0884240F085804A
:1013B000FFF7B8F96168192778438900B0FBF1F0AD
:1013C000A0FB08016FF00F0000EA5105FFF7AAF932
:1013D000616878438900B0FBF1F6FFF7A3F9616813
:1013E00078438900B0FBF1F04FF06409A0FB0801DD
:1013F000480900FB1960322101EB0010A0FB080135
:10140000F02000EA51104619FFF78CF96168784323
:101410008900B0FBF1F5FFF785F961687843890031
:10142000B0FBF1F0A0FB0801480900FB19500F21A7
:10143000000183E0FFF762F96168192778434900EA
:10144000B0FBF1F0A0FB08016FF00F0000EA5105BE
:10145000FFF754F9616878434900B0FBF1F6FFF7F4
:101460004DF9616878434900B0FBF1F04FF0640931
:10147000A0FB0801480900FB1960322101EBC00004
:10148000A0FB08014FF4F87000EA11104619FFF7AD
:1014900035F9616878434900B0FBF1F5FFF72EF9A3
:1014A000616878434900B0FBF1F0A0FB08014809EE
:1014B00000FB19500721C00040E0FFF71FF96168E9
:1014C000192778438900B0FBF1F0A0FB08016FF009
:1014D0000F0000EA5105FFF711F9616878438900B0
:1014E000B0FBF1F6FFF70AF9616878438900B0FBB9
:1014F000F1F04FF06409A0FB0801480900FB1960F6
:10150000322101EB0010A0FB0801F02000EA51108D
:101510004619FFF7F3F8616878438900B0FBF1F5ED
:10152000FFF7ECF8616878438900B0FBF1F0A0FBAD
:101530000801480900FB19500F2100013230A0FBBF
:10154000080201EA521021683043886001B0BDE80A
:10155000F083000040F22810C2F20000FFF7C4BA86
:1015600010B540F2281441F20001C2F20004C4F2A6
:10157000010100220C23C4E900102046C4E9022224
:10158000C4E90423C4E90622FFF772FB40F21C0100
:10159000C2F2000120460122BDE81040FFF7ECBB7B
:1015A000FEE7000080B582B0019040F22810C2F240
:1015B000000001A901224FF6FF73FFF79FFC01987D
:1015C00002B080BD82B041F20044C4F20204FFF7D1
:1015D000B5FDFFF777FD4FF4E130FFF7C1FFFFF7EF
:1015E0002FFDFFF7B3F840F26818C2F20008C8F800
:1015F0000000FFF77DF840F21009C2F20009C9F8B7
:101600000000FFF77BF840F2140AC2F2000ACAF8A1
:101610000000FFF787F840F21807C2F2000711A593
:10162000386000BF20464FF400710122FEF738FFFA
:101630004FF47A70FFF756FD20464FF400710022F8
:10164000FEF72EFF4FF47A70FFF74CFDD8F800102C
:10165000D9F80020DAF800303E682846009600F0FD
:1016600009F8DFE725642C25642C25642C25640DFE
:101670000A0000000FB4054B10B503A9044A0298F4
:1016800000F018F810BC5DF814FB0000A515000868
:101690000000002002E008C8121F08C1002AFAD189
:1016A00070477047002001E001C1121F002AFBD1E2
:1016B000704700002DE9FF4F89B09B460446002586
:1016C00006E025280BD05A460B999047641C6D1CE8
:1016D00020780028F5D10DB02846BDE8F08F00270E
:1016E000B8460122474900E0074314F8013F203B78
:1016F00002FA03F00842F7D120782E2819D114F805
:10170000010F47F004072A280ED06FF02F0220782F
:10171000A0F1300109290CD808EB880102EB410146
:1017200000EB0108641CF2E70A98641C50F8048B73
:101730000A9020780028CED0642808D0692806D0E6
:1017400075281ED05A460B9990476D1C58E00A998F
:101750004FF00A0901C90A91002802DA40422D21FE
:1017600002E0390504D52B218DF82010012103E07A
:10177000F90704D02021F7E78A4608AE0DE00021E2
:10178000FAE70A994FF00A0901C90A91F7E74946B1
:10179000FEF759FD303106F8011D0028F7D1ADEBF9
:1017A000060000F12009780701D44FF00108C84570
:1017B00002DDA8EB090000E000208046002706E0DB
:1017C00008A85A46C05D0B9990476D1C7F1C574571
:1017D000F6DB04E030205A460B9990476D1CB8F1B7
:1017E0000001A8F10108F5DC05E016F8010B5A46E6
:1017F0000B9990476D1CB9F10001A9F10109F4DCC6
:10180000641C65E70928010010B5044601E0FFF7F4
:10181000C9FE14F8010B04490028F8D1BDE81040B6
:101820000A20FFF7BFBE00000000002000000000FB
:101830000000000001020304060708090000000080
:1018400001020304681800080000002010000000D6
:1018500094160008781800081000002068050000A1
:10186000A416000800000000000000000024F4009E
:0818700001000000100000005F
:040000050800018965
:00000001FF
